{
  "_format": "hh-sol-artifact-1",
  "contractName": "MarketPlace",
  "sourceName": "contracts/MarketPlace.sol",
  "abi": [
    {
      "inputs": [
        {
          "internalType": "uint256",
          "name": "price",
          "type": "uint256"
        },
        {
          "internalType": "string",
          "name": "name",
          "type": "string"
        }
      ],
      "name": "addProduct",
      "outputs": [],
      "stateMutability": "nonpayable",
      "type": "function"
    },
    {
      "inputs": [
        {
          "internalType": "bool",
          "name": "_isSeller",
          "type": "bool"
        },
        {
          "internalType": "string",
          "name": "_pan",
          "type": "string"
        },
        {
          "internalType": "string",
          "name": "_name",
          "type": "string"
        }
      ],
      "name": "addUser",
      "outputs": [
        {
          "components": [
            {
              "internalType": "address payable",
              "name": "id",
              "type": "address"
            },
            {
              "internalType": "bool",
              "name": "isSeller",
              "type": "bool"
            },
            {
              "internalType": "string",
              "name": "pan",
              "type": "string"
            },
            {
              "internalType": "string",
              "name": "name",
              "type": "string"
            }
          ],
          "internalType": "struct MarketPlace.User",
          "name": "",
          "type": "tuple"
        }
      ],
      "stateMutability": "nonpayable",
      "type": "function"
    },
    {
      "inputs": [
        {
          "internalType": "uint256",
          "name": "",
          "type": "uint256"
        }
      ],
      "name": "allProducts",
      "outputs": [
        {
          "internalType": "uint256",
          "name": "productId",
          "type": "uint256"
        },
        {
          "internalType": "uint256",
          "name": "price",
          "type": "uint256"
        },
        {
          "internalType": "string",
          "name": "name",
          "type": "string"
        },
        {
          "components": [
            {
              "internalType": "address payable",
              "name": "id",
              "type": "address"
            },
            {
              "internalType": "bool",
              "name": "isSeller",
              "type": "bool"
            },
            {
              "internalType": "string",
              "name": "pan",
              "type": "string"
            },
            {
              "internalType": "string",
              "name": "name",
              "type": "string"
            }
          ],
          "internalType": "struct MarketPlace.User",
          "name": "seller",
          "type": "tuple"
        }
      ],
      "stateMutability": "view",
      "type": "function"
    },
    {
      "inputs": [
        {
          "internalType": "uint256",
          "name": "productId",
          "type": "uint256"
        }
      ],
      "name": "buyProduct",
      "outputs": [
        {
          "components": [
            {
              "internalType": "uint256",
              "name": "id",
              "type": "uint256"
            },
            {
              "internalType": "uint256",
              "name": "amount",
              "type": "uint256"
            },
            {
              "internalType": "bool",
              "name": "paid",
              "type": "bool"
            },
            {
              "components": [
                {
                  "internalType": "uint256",
                  "name": "productId",
                  "type": "uint256"
                },
                {
                  "internalType": "uint256",
                  "name": "price",
                  "type": "uint256"
                },
                {
                  "internalType": "string",
                  "name": "name",
                  "type": "string"
                },
                {
                  "components": [
                    {
                      "internalType": "address payable",
                      "name": "id",
                      "type": "address"
                    },
                    {
                      "internalType": "bool",
                      "name": "isSeller",
                      "type": "bool"
                    },
                    {
                      "internalType": "string",
                      "name": "pan",
                      "type": "string"
                    },
                    {
                      "internalType": "string",
                      "name": "name",
                      "type": "string"
                    }
                  ],
                  "internalType": "struct MarketPlace.User",
                  "name": "seller",
                  "type": "tuple"
                }
              ],
              "internalType": "struct MarketPlace.Product",
              "name": "productId",
              "type": "tuple"
            },
            {
              "components": [
                {
                  "internalType": "address payable",
                  "name": "id",
                  "type": "address"
                },
                {
                  "internalType": "bool",
                  "name": "isSeller",
                  "type": "bool"
                },
                {
                  "internalType": "string",
                  "name": "pan",
                  "type": "string"
                },
                {
                  "internalType": "string",
                  "name": "name",
                  "type": "string"
                }
              ],
              "internalType": "struct MarketPlace.User",
              "name": "seller",
              "type": "tuple"
            },
            {
              "components": [
                {
                  "internalType": "address payable",
                  "name": "id",
                  "type": "address"
                },
                {
                  "internalType": "bool",
                  "name": "isSeller",
                  "type": "bool"
                },
                {
                  "internalType": "string",
                  "name": "pan",
                  "type": "string"
                },
                {
                  "internalType": "string",
                  "name": "name",
                  "type": "string"
                }
              ],
              "internalType": "struct MarketPlace.User",
              "name": "buyer",
              "type": "tuple"
            }
          ],
          "internalType": "struct MarketPlace.Invoice",
          "name": "",
          "type": "tuple"
        }
      ],
      "stateMutability": "payable",
      "type": "function"
    },
    {
      "inputs": [
        {
          "internalType": "address",
          "name": "buyer",
          "type": "address"
        }
      ],
      "name": "getInvoice",
      "outputs": [
        {
          "components": [
            {
              "internalType": "uint256",
              "name": "id",
              "type": "uint256"
            },
            {
              "internalType": "uint256",
              "name": "amount",
              "type": "uint256"
            },
            {
              "internalType": "bool",
              "name": "paid",
              "type": "bool"
            },
            {
              "components": [
                {
                  "internalType": "uint256",
                  "name": "productId",
                  "type": "uint256"
                },
                {
                  "internalType": "uint256",
                  "name": "price",
                  "type": "uint256"
                },
                {
                  "internalType": "string",
                  "name": "name",
                  "type": "string"
                },
                {
                  "components": [
                    {
                      "internalType": "address payable",
                      "name": "id",
                      "type": "address"
                    },
                    {
                      "internalType": "bool",
                      "name": "isSeller",
                      "type": "bool"
                    },
                    {
                      "internalType": "string",
                      "name": "pan",
                      "type": "string"
                    },
                    {
                      "internalType": "string",
                      "name": "name",
                      "type": "string"
                    }
                  ],
                  "internalType": "struct MarketPlace.User",
                  "name": "seller",
                  "type": "tuple"
                }
              ],
              "internalType": "struct MarketPlace.Product",
              "name": "productId",
              "type": "tuple"
            },
            {
              "components": [
                {
                  "internalType": "address payable",
                  "name": "id",
                  "type": "address"
                },
                {
                  "internalType": "bool",
                  "name": "isSeller",
                  "type": "bool"
                },
                {
                  "internalType": "string",
                  "name": "pan",
                  "type": "string"
                },
                {
                  "internalType": "string",
                  "name": "name",
                  "type": "string"
                }
              ],
              "internalType": "struct MarketPlace.User",
              "name": "seller",
              "type": "tuple"
            },
            {
              "components": [
                {
                  "internalType": "address payable",
                  "name": "id",
                  "type": "address"
                },
                {
                  "internalType": "bool",
                  "name": "isSeller",
                  "type": "bool"
                },
                {
                  "internalType": "string",
                  "name": "pan",
                  "type": "string"
                },
                {
                  "internalType": "string",
                  "name": "name",
                  "type": "string"
                }
              ],
              "internalType": "struct MarketPlace.User",
              "name": "buyer",
              "type": "tuple"
            }
          ],
          "internalType": "struct MarketPlace.Invoice[]",
          "name": "",
          "type": "tuple[]"
        }
      ],
      "stateMutability": "view",
      "type": "function"
    },
    {
      "inputs": [
        {
          "internalType": "address",
          "name": "addr",
          "type": "address"
        }
      ],
      "name": "getProductofSeller",
      "outputs": [
        {
          "components": [
            {
              "internalType": "uint256",
              "name": "productId",
              "type": "uint256"
            },
            {
              "internalType": "uint256",
              "name": "price",
              "type": "uint256"
            },
            {
              "internalType": "string",
              "name": "name",
              "type": "string"
            },
            {
              "components": [
                {
                  "internalType": "address payable",
                  "name": "id",
                  "type": "address"
                },
                {
                  "internalType": "bool",
                  "name": "isSeller",
                  "type": "bool"
                },
                {
                  "internalType": "string",
                  "name": "pan",
                  "type": "string"
                },
                {
                  "internalType": "string",
                  "name": "name",
                  "type": "string"
                }
              ],
              "internalType": "struct MarketPlace.User",
              "name": "seller",
              "type": "tuple"
            }
          ],
          "internalType": "struct MarketPlace.Product[]",
          "name": "",
          "type": "tuple[]"
        }
      ],
      "stateMutability": "view",
      "type": "function"
    },
    {
      "inputs": [],
      "name": "getProducts",
      "outputs": [
        {
          "components": [
            {
              "internalType": "uint256",
              "name": "productId",
              "type": "uint256"
            },
            {
              "internalType": "uint256",
              "name": "price",
              "type": "uint256"
            },
            {
              "internalType": "string",
              "name": "name",
              "type": "string"
            },
            {
              "components": [
                {
                  "internalType": "address payable",
                  "name": "id",
                  "type": "address"
                },
                {
                  "internalType": "bool",
                  "name": "isSeller",
                  "type": "bool"
                },
                {
                  "internalType": "string",
                  "name": "pan",
                  "type": "string"
                },
                {
                  "internalType": "string",
                  "name": "name",
                  "type": "string"
                }
              ],
              "internalType": "struct MarketPlace.User",
              "name": "seller",
              "type": "tuple"
            }
          ],
          "internalType": "struct MarketPlace.Product[]",
          "name": "",
          "type": "tuple[]"
        }
      ],
      "stateMutability": "view",
      "type": "function"
    },
    {
      "inputs": [
        {
          "internalType": "address",
          "name": "addr",
          "type": "address"
        }
      ],
      "name": "getUser",
      "outputs": [
        {
          "components": [
            {
              "internalType": "address payable",
              "name": "id",
              "type": "address"
            },
            {
              "internalType": "bool",
              "name": "isSeller",
              "type": "bool"
            },
            {
              "internalType": "string",
              "name": "pan",
              "type": "string"
            },
            {
              "internalType": "string",
              "name": "name",
              "type": "string"
            }
          ],
          "internalType": "struct MarketPlace.User",
          "name": "",
          "type": "tuple"
        }
      ],
      "stateMutability": "view",
      "type": "function"
    },
    {
      "inputs": [],
      "name": "getUser2",
      "outputs": [
        {
          "components": [
            {
              "internalType": "address payable",
              "name": "id",
              "type": "address"
            },
            {
              "internalType": "bool",
              "name": "isSeller",
              "type": "bool"
            },
            {
              "internalType": "string",
              "name": "pan",
              "type": "string"
            },
            {
              "internalType": "string",
              "name": "name",
              "type": "string"
            }
          ],
          "internalType": "struct MarketPlace.User",
          "name": "",
          "type": "tuple"
        }
      ],
      "stateMutability": "view",
      "type": "function"
    },
    {
      "inputs": [
        {
          "internalType": "address",
          "name": "",
          "type": "address"
        },
        {
          "internalType": "uint256",
          "name": "",
          "type": "uint256"
        }
      ],
      "name": "invoices",
      "outputs": [
        {
          "internalType": "uint256",
          "name": "id",
          "type": "uint256"
        },
        {
          "internalType": "uint256",
          "name": "amount",
          "type": "uint256"
        },
        {
          "internalType": "bool",
          "name": "paid",
          "type": "bool"
        },
        {
          "components": [
            {
              "internalType": "uint256",
              "name": "productId",
              "type": "uint256"
            },
            {
              "internalType": "uint256",
              "name": "price",
              "type": "uint256"
            },
            {
              "internalType": "string",
              "name": "name",
              "type": "string"
            },
            {
              "components": [
                {
                  "internalType": "address payable",
                  "name": "id",
                  "type": "address"
                },
                {
                  "internalType": "bool",
                  "name": "isSeller",
                  "type": "bool"
                },
                {
                  "internalType": "string",
                  "name": "pan",
                  "type": "string"
                },
                {
                  "internalType": "string",
                  "name": "name",
                  "type": "string"
                }
              ],
              "internalType": "struct MarketPlace.User",
              "name": "seller",
              "type": "tuple"
            }
          ],
          "internalType": "struct MarketPlace.Product",
          "name": "productId",
          "type": "tuple"
        },
        {
          "components": [
            {
              "internalType": "address payable",
              "name": "id",
              "type": "address"
            },
            {
              "internalType": "bool",
              "name": "isSeller",
              "type": "bool"
            },
            {
              "internalType": "string",
              "name": "pan",
              "type": "string"
            },
            {
              "internalType": "string",
              "name": "name",
              "type": "string"
            }
          ],
          "internalType": "struct MarketPlace.User",
          "name": "seller",
          "type": "tuple"
        },
        {
          "components": [
            {
              "internalType": "address payable",
              "name": "id",
              "type": "address"
            },
            {
              "internalType": "bool",
              "name": "isSeller",
              "type": "bool"
            },
            {
              "internalType": "string",
              "name": "pan",
              "type": "string"
            },
            {
              "internalType": "string",
              "name": "name",
              "type": "string"
            }
          ],
          "internalType": "struct MarketPlace.User",
          "name": "buyer",
          "type": "tuple"
        }
      ],
      "stateMutability": "view",
      "type": "function"
    },
    {
      "inputs": [
        {
          "internalType": "address",
          "name": "",
          "type": "address"
        },
        {
          "internalType": "uint256",
          "name": "",
          "type": "uint256"
        }
      ],
      "name": "products",
      "outputs": [
        {
          "internalType": "uint256",
          "name": "productId",
          "type": "uint256"
        },
        {
          "internalType": "uint256",
          "name": "price",
          "type": "uint256"
        },
        {
          "internalType": "string",
          "name": "name",
          "type": "string"
        },
        {
          "components": [
            {
              "internalType": "address payable",
              "name": "id",
              "type": "address"
            },
            {
              "internalType": "bool",
              "name": "isSeller",
              "type": "bool"
            },
            {
              "internalType": "string",
              "name": "pan",
              "type": "string"
            },
            {
              "internalType": "string",
              "name": "name",
              "type": "string"
            }
          ],
          "internalType": "struct MarketPlace.User",
          "name": "seller",
          "type": "tuple"
        }
      ],
      "stateMutability": "view",
      "type": "function"
    },
    {
      "inputs": [
        {
          "internalType": "address",
          "name": "",
          "type": "address"
        }
      ],
      "name": "users",
      "outputs": [
        {
          "internalType": "address payable",
          "name": "id",
          "type": "address"
        },
        {
          "internalType": "bool",
          "name": "isSeller",
          "type": "bool"
        },
        {
          "internalType": "string",
          "name": "pan",
          "type": "string"
        },
        {
          "internalType": "string",
          "name": "name",
          "type": "string"
        }
      ],
      "stateMutability": "view",
      "type": "function"
    }
  ],
  "bytecode": "0x608060405234801561001057600080fd5b50612a5a806100206000396000f3fe6080604052600436106100a75760003560e01c80639e01f9b9116100645780639e01f9b9146101a3578063a87430ba146101b8578063c29b2f20146101e8578063cfaaef56146101fd578063d7ff5ebb1461022d578063fc6409491461025a57600080fd5b80630dad62fa146100ac57806323cd950a146100e757806361c7478e146101095780636f77926b146101365780636f80677c146101635780638642269e14610183575b600080fd5b3480156100b857600080fd5b506100cc6100c736600461250d565b61027a565b6040516100de9695949392919061261b565b60405180910390f35b3480156100f357600080fd5b50610107610102366004612718565b61079f565b005b34801561011557600080fd5b5061012961012436600461275f565b610a2d565b6040516100de9190612781565b34801561014257600080fd5b5061015661015136600461275f565b610d1e565b6040516100de91906127e3565b34801561016f57600080fd5b5061015661017e3660046127f6565b610eb0565b610196610191366004612871565b6110e2565b6040516100de91906128f2565b3480156101af57600080fd5b50610156611662565b3480156101c457600080fd5b506101d86101d336600461275f565b6117ea565b6040516100de9493929190612905565b3480156101f457600080fd5b50610129611933565b34801561020957600080fd5b5061021d610218366004612871565b611b9d565b6040516100de949392919061294e565b34801561023957600080fd5b5061024d61024836600461275f565b611dba565b6040516100de919061297f565b34801561026657600080fd5b5061021d61027536600461250d565b612338565b6004602052816000526040600020818154811061029657600080fd5b90600052602060002090600f0201600091509150508060000154908060010154908060020160009054906101000a900460ff16908060030160405180608001604052908160008201548152602001600182015481526020016002820180546102fd906129d4565b80601f0160208091040260200160405190810160405280929190818152602001828054610329906129d4565b80156103765780601f1061034b57610100808354040283529160200191610376565b820191906000526020600020905b81548152906001019060200180831161035957829003601f168201915b5050509183525050604080516080810182526003840180546001600160a01b0381168352600160a01b900460ff16151560208084019190915260048601805491909501949293919291840191906103cc906129d4565b80601f01602080910402602001604051908101604052809291908181526020018280546103f8906129d4565b80156104455780601f1061041a57610100808354040283529160200191610445565b820191906000526020600020905b81548152906001019060200180831161042857829003601f168201915b5050505050815260200160028201805461045e906129d4565b80601f016020809104026020016040519081016040528092919081815260200182805461048a906129d4565b80156104d75780601f106104ac576101008083540402835291602001916104d7565b820191906000526020600020905b8154815290600101906020018083116104ba57829003601f168201915b50505091909252505050905250604080516080810182526009840180546001600160a01b0381168352600160a01b900460ff1615156020830152600a85018054949594929391929184019161052b906129d4565b80601f0160208091040260200160405190810160405280929190818152602001828054610557906129d4565b80156105a45780601f10610579576101008083540402835291602001916105a4565b820191906000526020600020905b81548152906001019060200180831161058757829003601f168201915b505050505081526020016002820180546105bd906129d4565b80601f01602080910402602001604051908101604052809291908181526020018280546105e9906129d4565b80156106365780601f1061060b57610100808354040283529160200191610636565b820191906000526020600020905b81548152906001019060200180831161061957829003601f168201915b50505091909252505060408051608081018252600c850180546001600160a01b0381168352600160a01b900460ff1615156020830152600d860180549596959294509092840191610686906129d4565b80601f01602080910402602001604051908101604052809291908181526020018280546106b2906129d4565b80156106ff5780601f106106d4576101008083540402835291602001916106ff565b820191906000526020600020905b8154815290600101906020018083116106e257829003601f168201915b50505050508152602001600282018054610718906129d4565b80601f0160208091040260200160405190810160405280929190818152602001828054610744906129d4565b80156107915780601f1061076657610100808354040283529160200191610791565b820191906000526020600020905b81548152906001019060200180831161077457829003601f168201915b505050505081525050905086565b33600090815260066020526040902054600160a01b900460ff16151560011461080a5760405162461bcd60e51b81526020600482015260186024820152772a3432903ab9b2b91034b9903737ba10309039b2b63632b960411b60448201526064015b60405180910390fd5b6000604051806080016040528061082060005490565b815260200184815260200183815260200161083a33610d1e565b905233600090815260056020908152604080832080546001818101835591855293839020855160069095020193845582850151908401558301518051939450849361088b9260028501920190612384565b50606082015180516003830180546020808501511515600160a01b026001600160a81b03199092166001600160a01b03909416939093171781556040830151805191926108e092600487019290910190612384565b50606082015180516108fc916002840191602090910190612384565b505060038054600181018255600091909152845160069091027fc2575a0e9e593c00f959f8c92f12db2869c3395a3b0502d05e2516446f71f85b81019182556020808701517fc2575a0e9e593c00f959f8c92f12db2869c3395a3b0502d05e2516446f71f85c830155604087015180518897509395506109a494507fc2575a0e9e593c00f959f8c92f12db2869c3395a3b0502d05e2516446f71f85d90920192910190612384565b50606082015180516003830180546020808501511515600160a01b026001600160a81b03199092166001600160a01b03909416939093171781556040830151805191926109f992600487019290910190612384565b5060608201518051610a15916002840191602090910190612384565b5050505050610a28600080546001019055565b505050565b6001600160a01b038116600090815260066020526040902054606090600160a01b900460ff161515600114610a9f5760405162461bcd60e51b81526020600482015260186024820152772a3432903ab9b2b91034b9903737ba10309039b2b63632b960411b6044820152606401610801565b6001600160a01b038216600090815260056020908152604080832080548251818502810185019093528083529192909190849084015b82821015610d1257838290600052602060002090600602016040518060800160405290816000820154815260200160018201548152602001600282018054610b1c906129d4565b80601f0160208091040260200160405190810160405280929190818152602001828054610b48906129d4565b8015610b955780601f10610b6a57610100808354040283529160200191610b95565b820191906000526020600020905b815481529060010190602001808311610b7857829003601f168201915b5050509183525050604080516080810182526003840180546001600160a01b0381168352600160a01b900460ff1615156020808401919091526004860180549190950194929391929184019190610beb906129d4565b80601f0160208091040260200160405190810160405280929190818152602001828054610c17906129d4565b8015610c645780601f10610c3957610100808354040283529160200191610c64565b820191906000526020600020905b815481529060010190602001808311610c4757829003601f168201915b50505050508152602001600282018054610c7d906129d4565b80601f0160208091040260200160405190810160405280929190818152602001828054610ca9906129d4565b8015610cf65780601f10610ccb57610100808354040283529160200191610cf6565b820191906000526020600020905b815481529060010190602001808311610cd957829003601f168201915b5050505050815250508152505081526020019060010190610ad5565b50929695505050505050565b60408051608081018252600080825260208201526060918101829052818101919091526001600160a01b03828116600090815260066020908152604091829020825160808101845281549485168152600160a01b90940460ff161515918401919091526001810180549192840191610d95906129d4565b80601f0160208091040260200160405190810160405280929190818152602001828054610dc1906129d4565b8015610e0e5780601f10610de357610100808354040283529160200191610e0e565b820191906000526020600020905b815481529060010190602001808311610df157829003601f168201915b50505050508152602001600282018054610e27906129d4565b80601f0160208091040260200160405190810160405280929190818152602001828054610e53906129d4565b8015610ea05780601f10610e7557610100808354040283529160200191610ea0565b820191906000526020600020905b815481529060010190602001808311610e8357829003601f168201915b5050505050815250509050919050565b60408051608081018252600080825260208201526060918101829052818101919091526040805160808101825233808252861515602080840191825283850188815260608501889052600093845260068252949092208351815492511515600160a01b026001600160a81b03199093166001600160a01b03919091161791909117815592518051929392610f4a9260018501920190612384565b5060608201518051610f66916002840191602090910190612384565b50506002805460010190555033600090815260066020908152604091829020825160808101845281546001600160a01b0381168252600160a01b900460ff161515928101929092526001810180549293919291840191610fc5906129d4565b80601f0160208091040260200160405190810160405280929190818152602001828054610ff1906129d4565b801561103e5780601f106110135761010080835404028352916020019161103e565b820191906000526020600020905b81548152906001019060200180831161102157829003601f168201915b50505050508152602001600282018054611057906129d4565b80601f0160208091040260200160405190810160405280929190818152602001828054611083906129d4565b80156110d05780601f106110a5576101008083540402835291602001916110d0565b820191906000526020600020905b8154815290600101906020018083116110b357829003601f168201915b50505050508152505090509392505050565b6110ea612408565b6000600383815481106110ff576110ff612a0e565b9060005260206000209060060201604051806080016040529081600082015481526020016001820154815260200160028201805461113c906129d4565b80601f0160208091040260200160405190810160405280929190818152602001828054611168906129d4565b80156111b55780601f1061118a576101008083540402835291602001916111b5565b820191906000526020600020905b81548152906001019060200180831161119857829003601f168201915b5050509183525050604080516080810182526003840180546001600160a01b0381168352600160a01b900460ff161515602080840191909152600486018054919095019492939192918401919061120b906129d4565b80601f0160208091040260200160405190810160405280929190818152602001828054611237906129d4565b80156112845780601f1061125957610100808354040283529160200191611284565b820191906000526020600020905b81548152906001019060200180831161126757829003601f168201915b5050505050815260200160028201805461129d906129d4565b80601f01602080910402602001604051908101604052809291908181526020018280546112c9906129d4565b80156113165780601f106112eb57610100808354040283529160200191611316565b820191906000526020600020905b8154815290600101906020018083116112f957829003601f168201915b505050919092525050509052506020810151606082015191925090348211156113815760405162461bcd60e51b815260206004820152601860248201527f546865207072696365206973206e6f7420636f727265637400000000000000006044820152606401610801565b8051336001600160a01b03909116036113e85760405162461bcd60e51b815260206004820152602360248201527f5468652073656c6c6572206973207468652073616d65206173207468652062756044820152623cb2b960e91b6064820152608401610801565b60006040518060c001604052806113fe60015490565b815260200184815260200160001515815260200185815260200161142133610d1e565b815260200183905282516040519192506001600160a01b0316903480156108fc02916000818181858888f19350505050158015611462573d6000803e3d6000fd5b50611471600180546001019055565b600160408281018281523360009081526004602081815284832080548088018255908452928190208751600f909402019283558087015195830195909555915160028201805460ff1916911515919091179055606085015180516003830190815581860151938301939093559283015180518695929493926114fa926005870192910190612384565b50606082015180516003830180546020808501511515600160a01b026001600160a81b03199092166001600160a01b039094169390931717815560408301518051919261154f92600487019290910190612384565b506060820151805161156b916002840191602090910190612384565b50505050608083015180516009840180546020808501511515600160a01b026001600160a81b03199092166001600160a01b03909416939093171781556040830151805193945090926115c492600a8701920190612384565b50606082015180516115e0916002840191602090910190612384565b50505060a08201518051600c830180546020808501511515600160a01b026001600160a81b03199092166001600160a01b039094169390931717815560408301518051919261163792600d87019290910190612384565b5060608201518051611653916002840191602090910190612384565b50939998505050505050505050565b60408051608080820183526000808352602080840182905260608486018190528085015233825260068152908490208451928301855280546001600160a01b0381168452600160a01b900460ff161515918301919091526001810180549394929391928401916116d1906129d4565b80601f01602080910402602001604051908101604052809291908181526020018280546116fd906129d4565b801561174a5780601f1061171f5761010080835404028352916020019161174a565b820191906000526020600020905b81548152906001019060200180831161172d57829003601f168201915b50505050508152602001600282018054611763906129d4565b80601f016020809104026020016040519081016040528092919081815260200182805461178f906129d4565b80156117dc5780601f106117b1576101008083540402835291602001916117dc565b820191906000526020600020905b8154815290600101906020018083116117bf57829003601f168201915b505050505081525050905090565b600660205260009081526040902080546001820180546001600160a01b03831693600160a01b90930460ff16929190611822906129d4565b80601f016020809104026020016040519081016040528092919081815260200182805461184e906129d4565b801561189b5780601f106118705761010080835404028352916020019161189b565b820191906000526020600020905b81548152906001019060200180831161187e57829003601f168201915b5050505050908060020180546118b0906129d4565b80601f01602080910402602001604051908101604052809291908181526020018280546118dc906129d4565b80156119295780601f106118fe57610100808354040283529160200191611929565b820191906000526020600020905b81548152906001019060200180831161190c57829003601f168201915b5050505050905084565b60606003805480602002602001604051908101604052809291908181526020016000905b82821015611b945783829060005260206000209060060201604051806080016040529081600082015481526020016001820154815260200160028201805461199e906129d4565b80601f01602080910402602001604051908101604052809291908181526020018280546119ca906129d4565b8015611a175780601f106119ec57610100808354040283529160200191611a17565b820191906000526020600020905b8154815290600101906020018083116119fa57829003601f168201915b5050509183525050604080516080810182526003840180546001600160a01b0381168352600160a01b900460ff1615156020808401919091526004860180549190950194929391929184019190611a6d906129d4565b80601f0160208091040260200160405190810160405280929190818152602001828054611a99906129d4565b8015611ae65780601f10611abb57610100808354040283529160200191611ae6565b820191906000526020600020905b815481529060010190602001808311611ac957829003601f168201915b50505050508152602001600282018054611aff906129d4565b80601f0160208091040260200160405190810160405280929190818152602001828054611b2b906129d4565b8015611b785780601f10611b4d57610100808354040283529160200191611b78565b820191906000526020600020905b815481529060010190602001808311611b5b57829003601f168201915b5050505050815250508152505081526020019060010190611957565b50505050905090565b60038181548110611bad57600080fd5b9060005260206000209060060201600091509050806000015490806001015490806002018054611bdc906129d4565b80601f0160208091040260200160405190810160405280929190818152602001828054611c08906129d4565b8015611c555780601f10611c2a57610100808354040283529160200191611c55565b820191906000526020600020905b815481529060010190602001808311611c3857829003601f168201915b5050604080516080810182526003870180546001600160a01b0381168352600160a01b900460ff16151560208301526004880180549798979296509094509185019250611ca1906129d4565b80601f0160208091040260200160405190810160405280929190818152602001828054611ccd906129d4565b8015611d1a5780601f10611cef57610100808354040283529160200191611d1a565b820191906000526020600020905b815481529060010190602001808311611cfd57829003601f168201915b50505050508152602001600282018054611d33906129d4565b80601f0160208091040260200160405190810160405280929190818152602001828054611d5f906129d4565b8015611dac5780601f10611d8157610100808354040283529160200191611dac565b820191906000526020600020905b815481529060010190602001808311611d8f57829003601f168201915b505050505081525050905084565b6001600160a01b0381166000908152600460209081526040808320805482518185028101850190935280835260609493849084015b82821015610d1257838290600052602060002090600f02016040518060c001604052908160008201548152602001600182015481526020016002820160009054906101000a900460ff16151515158152602001600382016040518060800160405290816000820154815260200160018201548152602001600282018054611e75906129d4565b80601f0160208091040260200160405190810160405280929190818152602001828054611ea1906129d4565b8015611eee5780601f10611ec357610100808354040283529160200191611eee565b820191906000526020600020905b815481529060010190602001808311611ed157829003601f168201915b5050509183525050604080516080810182526003840180546001600160a01b0381168352600160a01b900460ff1615156020808401919091526004860180549190950194929391929184019190611f44906129d4565b80601f0160208091040260200160405190810160405280929190818152602001828054611f70906129d4565b8015611fbd5780601f10611f9257610100808354040283529160200191611fbd565b820191906000526020600020905b815481529060010190602001808311611fa057829003601f168201915b50505050508152602001600282018054611fd6906129d4565b80601f0160208091040260200160405190810160405280929190818152602001828054612002906129d4565b801561204f5780601f106120245761010080835404028352916020019161204f565b820191906000526020600020905b81548152906001019060200180831161203257829003601f168201915b505050919092525050509052508152604080516080810182526009840180546001600160a01b0381168352600160a01b900460ff161515602080840191909152600a8601805491909501949293919291840191906120ac906129d4565b80601f01602080910402602001604051908101604052809291908181526020018280546120d8906129d4565b80156121255780601f106120fa57610100808354040283529160200191612125565b820191906000526020600020905b81548152906001019060200180831161210857829003601f168201915b5050505050815260200160028201805461213e906129d4565b80601f016020809104026020016040519081016040528092919081815260200182805461216a906129d4565b80156121b75780601f1061218c576101008083540402835291602001916121b7565b820191906000526020600020905b81548152906001019060200180831161219a57829003601f168201915b50505091909252505050815260408051608081018252600c840180546001600160a01b0381168352600160a01b900460ff161515602080840191909152600d860180549190950194929391929184019190612211906129d4565b80601f016020809104026020016040519081016040528092919081815260200182805461223d906129d4565b801561228a5780601f1061225f5761010080835404028352916020019161228a565b820191906000526020600020905b81548152906001019060200180831161226d57829003601f168201915b505050505081526020016002820180546122a3906129d4565b80601f01602080910402602001604051908101604052809291908181526020018280546122cf906129d4565b801561231c5780601f106122f15761010080835404028352916020019161231c565b820191906000526020600020905b8154815290600101906020018083116122ff57829003601f168201915b5050505050815250508152505081526020019060010190611def565b6005602052816000526040600020818154811061235457600080fd5b906000526020600020906006020160009150915050806000015490806001015490806002018054611bdc906129d4565b828054612390906129d4565b90600052602060002090601f0160209004810192826123b257600085556123f8565b82601f106123cb57805160ff19168380011785556123f8565b828001600101855582156123f8579182015b828111156123f85782518255916020019190600101906123dd565b50612404929150612493565b5090565b6040518060c0016040528060008152602001600081526020016000151581526020016124326124a8565b8152602001612460604080516080810182526000808252602082015260609181018290528181019190915290565b815260200161248e604080516080810182526000808252602082015260609181018290528181019190915290565b905290565b5b808211156124045760008155600101612494565b604051806080016040528060008152602001600081526020016060815260200161248e604080516080810182526000808252602082015260609181018290528181019190915290565b80356001600160a01b038116811461250857600080fd5b919050565b6000806040838503121561252057600080fd5b612529836124f1565b946020939093013593505050565b6000815180845260005b8181101561255d57602081850181015186830182015201612541565b8181111561256f576000602083870101525b50601f01601f19169290920160200192915050565b60018060a01b03815116825260208101511515602083015260006040820151608060408501526125b76080850182612537565b9050606083015184820360608601526125d08282612537565b95945050505050565b805182526020810151602083015260006040820151608060408501526126026080850182612537565b9050606083015184820360608601526125d08282612584565b868152856020820152841515604082015260c06060820152600061264260c08301866125d9565b82810360808401526126548186612584565b905082810360a08401526126688185612584565b9998505050505050505050565b634e487b7160e01b600052604160045260246000fd5b600082601f83011261269c57600080fd5b813567ffffffffffffffff808211156126b7576126b7612675565b604051601f8301601f19908116603f011681019082821181831017156126df576126df612675565b816040528381528660208588010111156126f857600080fd5b836020870160208301376000602085830101528094505050505092915050565b6000806040838503121561272b57600080fd5b82359150602083013567ffffffffffffffff81111561274957600080fd5b6127558582860161268b565b9150509250929050565b60006020828403121561277157600080fd5b61277a826124f1565b9392505050565b6000602080830181845280855180835260408601915060408160051b870101925083870160005b828110156127d657603f198886030184526127c48583516125d9565b945092850192908501906001016127a8565b5092979650505050505050565b60208152600061277a6020830184612584565b60008060006060848603121561280b57600080fd5b8335801515811461281b57600080fd5b9250602084013567ffffffffffffffff8082111561283857600080fd5b6128448783880161268b565b9350604086013591508082111561285a57600080fd5b506128678682870161268b565b9150509250925092565b60006020828403121561288357600080fd5b5035919050565b80518252602081015160208301526040810151151560408301526000606082015160c060608501526128bf60c08501826125d9565b9050608083015184820360808601526128d88282612584565b91505060a083015184820360a08601526125d08282612584565b60208152600061277a602083018461288a565b6001600160a01b0385168152831515602082015260806040820181905260009061293190830185612537565b82810360608401526129438185612537565b979650505050505050565b84815283602082015260806040820152600061296d6080830185612537565b82810360608401526129438185612584565b6000602080830181845280855180835260408601915060408160051b870101925083870160005b828110156127d657603f198886030184526129c285835161288a565b945092850192908501906001016129a6565b600181811c908216806129e857607f821691505b602082108103612a0857634e487b7160e01b600052602260045260246000fd5b50919050565b634e487b7160e01b600052603260045260246000fdfea26469706673582212208ce183cf14debd6b7760ec8395961bb4f9ec898d97989c5495299191518284e964736f6c634300080d0033",
  "linkReferences": {},
  "deployedLinkReferences": {}
}